:020000040800F2
:100000007806002099010008A1010008A30100085A
:10001000A5010008A7010008A901000800000000D0
:10002000000000000000000000000000AB0100081C
:10003000AD01000800000000AF010008B101000898
:10004000B3010008B3010008B3010008B3010008C0
:10005000B3010008B3010008B3010008B3010008B0
:10006000B3010008B3010008B3010008B10600089D
:10007000D1060008F1060008110700083107000842
:100080005107000871070008B3010008B301000818
:10009000B3010008B3010008B3010008B301000870
:1000A000B3010008B3010008B3010008B301000860
:1000B000B3010008B3010008B3010008B301000850
:1000C000B3010008B3010008B3010008B301000840
:1000D000B3010008B3010008B3010008B301000830
:1000E000B3010008B3010008B301000800F002F8F2
:1000F00000F042F80AA090E8000C82448344AAF180
:100100000107DA4501D100F037F8AFF2090EBAE87D
:100110000F0013F0010F18BFFB1A43F0010318473B
:10012000600C0000800C0000103A24BF78C878C131
:10013000FAD8520724BF30C830C144BF04680C60ED
:10014000704700000023002400250026103A28BF35
:1001500078C1FBD8520728BF30C148BF0B60704739
:10016000642900F04D80752900F04A800020704716
:100170001FB51FBD10B510BD00F053F91146FFF7B4
:10018000F7FF00F0BFFD00F071F903B4FFF7F2FFD5
:1001900003BC00F079F9000009488047094800478E
:1001A000FEE7FEE7FEE7FEE7FEE7FEE7FEE7FEE727
:1001B000FEE7FEE704480549054A064B7047000084
:1001C000A10A0008ED000008780000207806002051
:1001D00078020020780200200FB41CB5074B06AA55
:1001E0007B4469460090059800F003F900206946B9
:1001F00000F012F91CBC5DF814FB00003502000091
:100200002DE9F0410646002410687529314616A5EF
:1002100010D0AFF30080002802DA404213A507E0B7
:1002200031688A0701D512A502E0490704D511A556
:10023000012401E0AFF3008000210A2206F1240727
:1002400009E0B0FBF2FCB0FBF2F302FB1C00303023
:1002500078541846491C0028F3D123462A463046D4
:10026000BDE8F04100F067B8000000002D0000007C
:100270002B000000200000002DE9F0410F4605464C
:10028000002028622846E968884770B3252805D0F1
:10029000D5E901219047286A401CF2E7E968284621
:1002A000002688476C2804460AD0682C08D04C2CBD
:1002B00035D06A2C31D0742C31D07A2C2FD016E066
:1002C000E968064628468847B042044608D16C2EA5
:1002D00023D04FF480662846E9688847044606E044
:1002E0006C2E03D04FF4807601E01EE04026E4B18E
:1002F000A4F14100192802D8203446F400663A4699
:10030000214628462E60FFF72BFF60B1012808D058
:10031000FF1D27F007070837B4E78026DBE7002634
:10032000D9E73F1DAEE72046B2E7286ABDE8F08175
:100330007047704770472DE9F0470D469946924641
:10034000044600F124080168880604D5E06921F01C
:100350001001216000E00120A84201DD471B00E000
:100360000027A1697A1902EB0900081AA061207818
:10037000C00602D42046AFF30080002608E0D4E98E
:1003800001211AF806009047206A401C761C206262
:100390004E45F4DB2078C0060AD52046AFF3008036
:1003A00006E0D4E9012130209047206A401C2062F9
:1003B000381EA7F10107F4DC07E0D4E9012118F8A1
:1003C00005009047206A401C2062281EA5F1010507
:1003D000F3DC2046AFF300802078000602D502202F
:1003E000BDE8F0870120FBE701694A1C026108783B
:1003F000704700B58FB0CDE9013100210591054965
:100400007944CDE9031011466846FFF735FF0FB078
:1004100000BD0000E5FFFFFF0A6802F8010B0A605B
:100420007047754600F02CF8AE4605006946534605
:1004300020F00700854618B020B5FFF7BBFEBDE8E9
:1004400020404FF000064FF000074FF000084FF03B
:10045000000B21F00701AC46ACE8C009ACE8C009CC
:10046000ACE8C009ACE8C0098D46704710B5044639
:10047000AFF300802046BDE81040FFF786BE0000C5
:10048000004870471400002001491820ABBEFEE769
:1004900026000200704721B1826842F001028260AA
:1004A00003E0826822F001028260704700B587B0E5
:1004B00001214FF4017000F005FA0120ADF8180099
:1004C00000208DF81B0006A9194800F05FF90020F4
:1004D00001908DF808008DF809004FF4602003901A
:1004E0000020049001208DF8140001A9114800F0AB
:1004F00045F80523012200210E4800F067F801218C
:100500000C48FFF7C8FF0B4800F0BCF800BF0948D3
:1005100000F029F80028FAD1064800F0C3F800BF1F
:10052000044800F009F80028FAD107B000BD000027
:100530000008014000240140014600208A6802F0C2
:1005400004020AB1012000E0002070470146C86C97
:1005500080B270470246002013680B400BB10120A7
:1005600000E000207047014600208A6802F008027F
:100570000AB1012000E000207047000030B50246BB
:100580000020002350680F4C20400D790C6844EA8D
:1005900005242043506090680B4C2040D1E9025460
:1005A0002C434D7944EA450420439060D06A20F4FE
:1005B00070000C7C641EE4B2234340EA0350D06216
:1005C00030BD0000FFFEF0FFFDF7F1FFF0B504467F
:1005D0000D4600200021092D11DDE068A5F10A0675
:1005E00006EB4607072606FA07F18843A5F10A0637
:1005F00006EB460603FA06F10843E0600CE02069CA
:1006000005EB4507072606FA07F1884305EB450683
:1006100003FA06F108432061072A0FDA606B561EC1
:1006200006EB86071F2606FA07F18843561E06EBDF
:10063000860605FA06F10843606322E00D2A0FDA08
:10064000206BD61F06EB86071F2606FA07F18843A4
:10065000D61F06EB860605FA06F10843206310E074
:10066000E06AA2F10D0606EB86071F2606FA07F1DF
:100670008843A2F10D0606EB860605FA06F108434B
:10068000E062F0BD816841F008018160704721B1EE
:10069000826842F4A002826003E0826822F4A00231
:1006A00082607047816841F0040181607047704743
:1006B00010B50548006800F00F0403484460204668
:1006C000FFF7F5FF10BD000000000240704700007A
:1006D00010B505480068C0F30314200102494860C2
:1006E0002046FFF7F3FF10BD0000024070470000F6
:1006F00010B505480068C0F3032420020249486091
:100700002046FFF7F3FF10BD0000024070470000D5
:1007100010B505480068C0F303342003024948605F
:100720002046FFF7F3FF10BD0000024070470000B5
:1007300010B505480068C0F303442004024948602E
:100740002046FFF7F3FF10BD000002407047000095
:1007500010B505480068C0F30354200502494860FD
:100760002046FFF7F3FF10BD000002407047000075
:1007700010B505480068C0F30364200602494860CC
:100780002046FFF7F3FF10BD000002402DE9F041C5
:10079000024600250026002000230024002791F8AF
:1007A00003C00CF00F0591F803C00CF0100CBCF165
:1007B000000F03D091F802C04CEA050591F800C083
:1007C000BCF1000F31D0146800202BE04FF0010C79
:1007D0000CFA00F3B1F800C00CEA03069E4220D1E7
:1007E00083004FF00F0C0CFA03F7BC4305FA03FC2F
:1007F0004CEA040491F803C0BCF1280F06D14FF075
:10080000010C0CFA00FCC2F814C00AE091F803C015
:10081000BCF1480F05D14FF0010C0CFA00FCC2F8F6
:1008200010C0401C0828D1D31460B1F800C0BCF13E
:10083000FF0F34DD546800202EE000F1080C4FF06B
:10084000010808FA0CF3B1F800C00CEA03069E4256
:1008500021D183004FF00F0C0CFA03F7BC4305FACB
:1008600003FC4CEA040491F803C0BCF1280F05D145
:1008700000F1080C08FA0CF8C2F8148091F803C0D3
:10088000BCF1480F07D100F1080C4FF0010808FA3D
:100890000CF8C2F81080401C0828CED35460BDE884
:1008A000F081000029B1064AD2690243044BDA61A3
:1008B00004E0034AD2698243014BDA6170470000C9
:1008C0000010024029B1064A92690243044B9A6122
:1008D00004E0034A92698243014B9A617047000029
:1008E0000010024030B500210022002400232D4DCD
:1008F0006D6805F00C0121B1042905D0082923D128
:1009000005E0294D056022E0274D05601FE0254DDB
:100910006D6805F47012234D6D6805F4803402256E
:1009200005EB92421CB9214D554305600BE01D4D6E
:100930006D6805F400351DB11C4D5543056002E09E
:10094000194D5543056002E0174D056000BF00BF1B
:10095000144D6D6805F0F0010909154D6B5C0568D3
:10096000DD4045600F4D6D6805F4E061090A104DEA
:100970006B5C4568DD4085600A4D6D6805F460512B
:10098000C90A0B4D6B5C4568DD40C560054D6D685F
:1009900005F44041890B074D6B5CC568B5FBF3F569
:1009A000056130BD0010024000127A0000093D00D0
:1009B000000000201000002010B500F001F810BD6C
:1009C0000CB50020019000903348006840F480305E
:1009D0003149086000BF3048006800F400300090E2
:1009E0000198401C0190009818B90198B0F5A06FCB
:1009F000F1D12948006800F4003010B101200090C6
:100A000001E0002000900098012843D123480068AD
:100A100040F01000214908600846006820F00300FB
:100A200008600846006840F0020008601A48406804
:100A3000194948600846406848600846406840F4E4
:100A4000806048600846406820F47C104860084692
:100A5000406840F4E81048600846006840F0807044
:100A6000086000BF0C48006800F000700028F9D052
:100A70000948406820F0030007494860084640687C
:100A800040F00200486000BF0348406800F00C00DE
:100A90000828F9D10CBD00000010024000200240DF
:100AA00010B51348006840F001001149086008467D
:100AB0004068104908400E494860084600680E49E1
:100AC00008400B4908600846006820F48020086050
:100AD0000846406820F4FE0048604FF41F0088601C
:100AE000FFF76AFF4FF000600449086010BD000086
:100AF000001002400000FFF8FFFFF6FE08ED00E0E6
:100B000010B501210846FFF7CDFE47204FF0804188
:100B100008854FF6FF7088850846008840F0010080
:100B2000088010BD21B1828942F40052828104E024
:100B300082894DF6FF731A408281704700B585B0F7
:100B4000012144F20400FFF7BDFE4FF40070ADF840
:100B5000100003208DF8120018208DF8130004A94E
:100B60001348FFF713FE4FF48060ADF81000042027
:100B70008DF8130004A90E48FFF708FE4FF4165035
:100B800000900020ADF80400ADF80600ADF80800B4
:100B9000ADF80C000C20ADF80A006946054800F0DD
:100BA00019F801210348FFF7BDFF05B000BD0000A3
:100BB000000801400038014002460020B1F5007FE6
:100BC00000D100BF13880B400BB1012000E00020D2
:100BD000704700002DE9F04786B005460E46002418
:100BE000A24600BFA1460027B08900B100BF2F4632
:100BF0002C8A4CF6FF700440F08804432C82AC89A8
:100C00004EF6F3100440B0883189084371890843D7
:100C10000443AC81AC8A4FF6FF400440B0890443E2
:100C2000AC8201A8FFF75EFE1F48874202D1DDF8C3
:100C300010A001E0DDF80CA0A88900F4004040B14C
:100C40000AEBCA0000EB0A1031684900B0FBF1F86A
:100C500007E00AEBCA0000EB0A1031688900B0FB1C
:100C6000F1F86420B8FBF0F004012009642101FBD5
:100C70001089A88900F4004040B1322000EBC9007F
:100C8000B0FBF1F000F00700044308E0322000EB75
:100C900009106421B0FBF1F000F00F0004432C8137
:100CA00006B0BDE8F087000000380140C1F308023B
:100CB0008280704710B504460BE014F8011B07480A
:100CC000FFF7F4FF00BF80210448FFF775FF0028FD
:100CD000F9D020780028F0D110BD00000038014084
:100CE0000AE000214FF08042918400BF4FF0804124
:100CF000898CB1F57A7FF9DB011EA0F10100F0D1FA
:100D0000704700008EB0FFF7D1FBFFF717FFFFF72A
:100D1000F7FE22E001211148FFF7B9FC00BF0221D4
:100D20000E48FFF717FC0028F9D00C48FFF70EFC1F
:100D3000044640F6E440604340F6FF7190FBF1F555
:100D40002B46224606A101A8FFF746FA01A8FFF7A5
:100D5000B1FF4FF4FA70FFF7C3FFDBE70024014057
:100D6000414443203D2025642C20566F6C746167FC
:100D700065203D20256C75206D560D0A0000000091
:100D8000A00D000800000020140000002801000849
:100D9000B40D00081400002064060000440100089F
:100DA0000000000001020304010203040607080911
:040DB000020406082B
:040000050800019955
:00000001FF
